{
  "contractName": "Shop",
  "abi": [
    {
      "constant": true,
      "inputs": [
        {
          "name": "",
          "type": "uint256"
        }
      ],
      "name": "products",
      "outputs": [
        {
          "name": "pId",
          "type": "uint256"
        },
        {
          "name": "pName",
          "type": "string"
        },
        {
          "name": "quantity",
          "type": "uint256"
        },
        {
          "name": "description",
          "type": "string"
        },
        {
          "name": "price",
          "type": "uint256"
        },
        {
          "name": "img",
          "type": "string"
        },
        {
          "name": "owner",
          "type": "address"
        },
        {
          "name": "available",
          "type": "bool"
        },
        {
          "name": "cat",
          "type": "string"
        }
      ],
      "payable": false,
      "stateMutability": "view",
      "type": "function"
    },
    {
      "constant": true,
      "inputs": [],
      "name": "productsCount",
      "outputs": [
        {
          "name": "",
          "type": "uint256"
        }
      ],
      "payable": false,
      "stateMutability": "view",
      "type": "function"
    },
    {
      "inputs": [],
      "payable": false,
      "stateMutability": "nonpayable",
      "type": "constructor"
    },
    {
      "anonymous": false,
      "inputs": [
        {
          "indexed": false,
          "name": "id",
          "type": "uint256"
        }
      ],
      "name": "productAdded",
      "type": "event"
    },
    {
      "constant": false,
      "inputs": [
        {
          "name": "_pName",
          "type": "string"
        },
        {
          "name": "_quantity",
          "type": "uint256"
        },
        {
          "name": "_description",
          "type": "string"
        },
        {
          "name": "_price",
          "type": "uint256"
        },
        {
          "name": "_img",
          "type": "string"
        },
        {
          "name": "_cat",
          "type": "string"
        }
      ],
      "name": "addProduct",
      "outputs": [
        {
          "name": "succcess",
          "type": "bool"
        }
      ],
      "payable": false,
      "stateMutability": "nonpayable",
      "type": "function"
    },
    {
      "constant": false,
      "inputs": [
        {
          "name": "_pId",
          "type": "uint256"
        },
        {
          "name": "newName",
          "type": "string"
        },
        {
          "name": "newQuantity",
          "type": "uint256"
        },
        {
          "name": "newDescription",
          "type": "string"
        },
        {
          "name": "newPrice",
          "type": "uint256"
        },
        {
          "name": "newImgUrl",
          "type": "string"
        },
        {
          "name": "newCat",
          "type": "string"
        }
      ],
      "name": "updateProduct",
      "outputs": [],
      "payable": false,
      "stateMutability": "nonpayable",
      "type": "function"
    },
    {
      "constant": false,
      "inputs": [
        {
          "name": "_pId",
          "type": "uint256"
        },
        {
          "name": "num",
          "type": "uint256"
        }
      ],
      "name": "buyProduct",
      "outputs": [],
      "payable": false,
      "stateMutability": "nonpayable",
      "type": "function"
    }
  ],
  "bytecode": "0x606060405234156200001057600080fd5b620000ef6040805190810160405280600781526020017f737765617465720000000000000000000000000000000000000000000000000081525060056040805190810160405280601381526020017f626c7565206c6164696573207377656174657200000000000000000000000000815250601e60c060405190810160405280608e81526020016200192f608e91396040805190810160405280600681526020017f6c61646965730000000000000000000000000000000000000000000000000000815250620008d664010000000002620007a6176401000000009004565b50620001cf6040805190810160405280600581526020017f70616e747300000000000000000000000000000000000000000000000000000081525060026040805190810160405280600a81526020017f677265792070616e747300000000000000000000000000000000000000000000815250604660c060405190810160405280608f815260200162001d15608f91396040805190810160405280600381526020017f6d656e0000000000000000000000000000000000000000000000000000000000815250620008d664010000000002620007a6176401000000009004565b50620002af6040805190810160405280600481526020017f5375697400000000000000000000000000000000000000000000000000000000815250600a6040805190810160405280601281526020017f707572706c69736820626c756520537569740000000000000000000000000000815250606460c060405190810160405280608f8152602001620018a0608f91396040805190810160405280600381526020017f6d656e0000000000000000000000000000000000000000000000000000000000815250620008d664010000000002620007a6176401000000009004565b506200038f6040805190810160405280600681526020017f6a61636b6574000000000000000000000000000000000000000000000000000081525060146040805190810160405280600c81526020017f426c61636b206a61636b65740000000000000000000000000000000000000000815250603760c060405190810160405280608f815260200162001b69608f91396040805190810160405280600381526020017f6d656e0000000000000000000000000000000000000000000000000000000000815250620008d664010000000002620007a6176401000000009004565b506200046f6040805190810160405280600781526020017f6c656767696e670000000000000000000000000000000000000000000000000081525060326040805190810160405280600d81526020017f626c61636b206c656767696e6700000000000000000000000000000000000000815250602760c060405190810160405280608e815260200162001adb608e91396040805190810160405280600681526020017f6c61646965730000000000000000000000000000000000000000000000000000815250620008d664010000000002620007a6176401000000009004565b506200054f6040805190810160405280600581526020017f6a65616e73000000000000000000000000000000000000000000000000000000815250601e6040805190810160405280600a81526020017f626c7565206a65616e7300000000000000000000000000000000000000000000815250602860c060405190810160405280608f815260200162001a4c608f91396040805190810160405280600381526020017f6d656e0000000000000000000000000000000000000000000000000000000000815250620008d664010000000002620007a6176401000000009004565b506200062f6040805190810160405280600681526020017f686f6f6469650000000000000000000000000000000000000000000000000000815250600f6040805190810160405280600d81526020017f79656c6c6f7720686f6f64696500000000000000000000000000000000000000815250603160c060405190810160405280608e815260200162001da4608e91396040805190810160405280600681526020017f6c61646965730000000000000000000000000000000000000000000000000000815250620008d664010000000002620007a6176401000000009004565b506200070f6040805190810160405280600681526020017f686f6f646965000000000000000000000000000000000000000000000000000081525060086040805190810160405280600b81526020017f6772657920686f6f646965000000000000000000000000000000000000000000815250603060c060405190810160405280608e815260200162001c87608e91396040805190810160405280600681526020017f6c61646965730000000000000000000000000000000000000000000000000000815250620008d664010000000002620007a6176401000000009004565b50620007ef6040805190810160405280600581526020017f6a65616e7300000000000000000000000000000000000000000000000000000081525060016040805190810160405280600a81526020017f626c7565206a65616e7300000000000000000000000000000000000000000000815250602f60c060405190810160405280608f8152602001620019bd608f91396040805190810160405280600681526020017f6c61646965730000000000000000000000000000000000000000000000000000815250620008d664010000000002620007a6176401000000009004565b50620008cf6040805190810160405280600781526020017f737765617465720000000000000000000000000000000000000000000000000081525060016040805190810160405280601481526020017f626c61636b206c61646965732073776561746572000000000000000000000000815250602e60c060405190810160405280608f815260200162001bf8608f91396040805190810160405280600681526020017f6c61646965730000000000000000000000000000000000000000000000000000815250620008d664010000000002620007a6176401000000009004565b5062000c52565b600080620008e362000b0a565b33915060008081548092919060010191905055506101206040519081016040528060005481526020018a81526020018981526020018881526020018781526020018681526020018373ffffffffffffffffffffffffffffffffffffffff168152602001600115158152602001858152509050620009748162000ae86401000000000262000a3b176401000000009004565b1562000ad757806001600080548152602001908152602001600020600082015181600001556020820151816001019080519060200190620009b792919062000b8f565b50604082015181600201556060820151816003019080519060200190620009e092919062000b8f565b506080820151816004015560a082015181600501908051906020019062000a0992919062000b8f565b5060c08201518160060160006101000a81548173ffffffffffffffffffffffffffffffffffffffff021916908373ffffffffffffffffffffffffffffffffffffffff16021790555060e08201518160060160146101000a81548160ff02191690831515021790555061010082015181600701908051906020019062000a9092919062000b8f565b509050507f1cfe762f807f7c75a575105c833abd2ee7556073fc8baa66e6c66657f8e63e1a6000546040518082815260200191505060405180910390a16001925062000adc565b600092505b50509695505050505050565b60008082608001511015801562000b03575060008260400151115b9050919050565b610120604051908101604052806000815260200162000b2862000c16565b81526020016000815260200162000b3e62000c16565b81526020016000815260200162000b5462000c16565b8152602001600073ffffffffffffffffffffffffffffffffffffffff16815260200160001515815260200162000b8962000c16565b81525090565b828054600181600116156101000203166002900490600052602060002090601f016020900481019282601f1062000bd257805160ff191683800117855562000c03565b8280016001018555821562000c03579182015b8281111562000c0257825182559160200191906001019062000be5565b5b50905062000c12919062000c2a565b5090565b602060405190810160405280600081525090565b62000c4f91905b8082111562000c4b57600081600090555060010162000c31565b5090565b90565b610c3e8062000c626000396000f30060606040526004361061006d576000357c0100000000000000000000000000000000000000000000000000000000900463ffffffff1680631b3d21c31461007257806343c56a0a146101b357806353b62866146103035780637acc0b201461032f578063e0df7bb6146105d6575b600080fd5b341561007d57600080fd5b6101b1600480803590602001909190803590602001908201803590602001908080601f0160208091040260200160405190810160405280939291908181526020018383808284378201915050505050509190803590602001909190803590602001908201803590602001908080601f0160208091040260200160405190810160405280939291908181526020018383808284378201915050505050509190803590602001909190803590602001908201803590602001908080601f0160208091040260200160405190810160405280939291908181526020018383808284378201915050505050509190803590602001908201803590602001908080601f016020809104026020016040519081016040528093929190818152602001838380828437820191505050505050919050506105ff565b005b34156101be57600080fd5b6102e9600480803590602001908201803590602001908080601f0160208091040260200160405190810160405280939291908181526020018383808284378201915050505050509190803590602001909190803590602001908201803590602001908080601f0160208091040260200160405190810160405280939291908181526020018383808284378201915050505050509190803590602001909190803590602001908201803590602001908080601f0160208091040260200160405190810160405280939291908181526020018383808284378201915050505050509190803590602001908201803590602001908080601f016020809104026020016040519081016040528093929190818152602001838380828437820191505050505050919050506107a6565b604051808215151515815260200191505060405180910390f35b341561030e57600080fd5b61032d6004808035906020019091908035906020019091905050610996565b005b341561033a57600080fd5b61035060048080359060200190919050506109be565b604051808a81526020018060200189815260200180602001888152602001806020018773ffffffffffffffffffffffffffffffffffffffff1673ffffffffffffffffffffffffffffffffffffffff168152602001861515151581526020018060200185810385528d8181546001816001161561010002031660029004815260200191508054600181600116156101000203166002900480156104335780601f1061040857610100808354040283529160200191610433565b820191906000526020600020905b81548152906001019060200180831161041657829003601f168201915b505085810384528b8181546001816001161561010002031660029004815260200191508054600181600116156101000203166002900480156104b65780601f1061048b576101008083540402835291602001916104b6565b820191906000526020600020905b81548152906001019060200180831161049957829003601f168201915b50508581038352898181546001816001161561010002031660029004815260200191508054600181600116156101000203166002900480156105395780601f1061050e57610100808354040283529160200191610539565b820191906000526020600020905b81548152906001019060200180831161051c57829003601f168201915b50508581038252868181546001816001161561010002031660029004815260200191508054600181600116156101000203166002900480156105bc5780601f10610591576101008083540402835291602001916105bc565b820191906000526020600020905b81548152906001019060200180831161059f57829003601f168201915b50509d505050505050505050505050505060405180910390f35b34156105e157600080fd5b6105e9610a35565b6040518082815260200191505060405180910390f35b60008711801561061157506000548711155b151561061c57600080fd5b6001600088815260200190815260200160002060060160149054906101000a900460ff16151561064b57600080fd5b6001600088815260200190815260200160002060060160009054906101000a900473ffffffffffffffffffffffffffffffffffffffff1673ffffffffffffffffffffffffffffffffffffffff163373ffffffffffffffffffffffffffffffffffffffff161415156106bb57600080fd5b856001600089815260200190815260200160002060010190805190602001906106e5929190610a5c565b508460016000898152602001908152602001600020600201819055508360016000898152602001908152602001600020600301908051906020019061072b929190610a5c565b5082600160008981526020019081526020016000206004018190555081600160008981526020019081526020016000206005019080519060200190610771929190610a5c565b508060016000898152602001908152602001600020600701908051906020019061079c929190610a5c565b5050505050505050565b6000806107b1610adc565b33915060008081548092919060010191905055506101206040519081016040528060005481526020018a81526020018981526020018881526020018781526020018681526020018373ffffffffffffffffffffffffffffffffffffffff16815260200160011515815260200185815250905061082c81610a3b565b156109855780600160008054815260200190815260200160002060008201518160000155602082015181600101908051906020019061086c929190610b59565b50604082015181600201556060820151816003019080519060200190610893929190610b59565b506080820151816004015560a08201518160050190805190602001906108ba929190610b59565b5060c08201518160060160006101000a81548173ffffffffffffffffffffffffffffffffffffffff021916908373ffffffffffffffffffffffffffffffffffffffff16021790555060e08201518160060160146101000a81548160ff02191690831515021790555061010082015181600701908051906020019061093f929190610b59565b509050507f1cfe762f807f7c75a575105c833abd2ee7556073fc8baa66e6c66657f8e63e1a6000546040518082815260200191505060405180910390a16001925061098a565b600092505b50509695505050505050565b8060016000848152602001908152602001600020600201600082825403925050819055505050565b60016020528060005260406000206000915090508060000154908060010190806002015490806003019080600401549080600501908060060160009054906101000a900473ffffffffffffffffffffffffffffffffffffffff16908060060160149054906101000a900460ff169080600701905089565b60005481565b600080826080015110158015610a55575060008260400151115b9050919050565b828054600181600116156101000203166002900490600052602060002090601f016020900481019282601f10610a9d57805160ff1916838001178555610acb565b82800160010185558215610acb579182015b82811115610aca578251825591602001919060010190610aaf565b5b509050610ad89190610bd9565b5090565b6101206040519081016040528060008152602001610af8610bfe565b815260200160008152602001610b0c610bfe565b815260200160008152602001610b20610bfe565b8152602001600073ffffffffffffffffffffffffffffffffffffffff168152602001600015158152602001610b53610bfe565b81525090565b828054600181600116156101000203166002900490600052602060002090601f016020900481019282601f10610b9a57805160ff1916838001178555610bc8565b82800160010185558215610bc8579182015b82811115610bc7578251825591602001919060010190610bac565b5b509050610bd59190610bd9565b5090565b610bfb91905b80821115610bf7576000816000905550600101610bdf565b5090565b90565b6020604051908101604052806000815250905600a165627a7a72305820cc6f23a41c60e35f8faeabaa5e83a39154c3e4e71174d29d1d0c08c4ecfaec92002968747470733a2f2f666972656261736573746f726167652e676f6f676c65617069732e636f6d2f76302f622f6d616e676f2d6d616769632e61707073706f742e636f6d2f6f2f696d6725324670726f647563745f31302e6a70673f616c743d6d6564696126746f6b656e3d37636465326130642d613962612d346637342d383932322d63623534333362623930653168747470733a2f2f666972656261736573746f726167652e676f6f676c65617069732e636f6d2f76302f622f6d616e676f2d6d616769632e61707073706f742e636f6d2f6f2f696d6725324670726f647563745f312e6a70673f616c743d6d6564696126746f6b656e3d64666365306466322d613936652d343363322d613866302d62633066666437613664636168747470733a2f2f666972656261736573746f726167652e676f6f676c65617069732e636f6d2f76302f622f6d616e676f2d6d616769632e61707073706f742e636f6d2f6f2f696d6725324670726f647563745f32312e6a70673f616c743d6d6564696126746f6b656e3d33333939376336622d373664642d343061622d393536352d30363165623230373236366268747470733a2f2f666972656261736573746f726167652e676f6f676c65617069732e636f6d2f76302f622f6d616e676f2d6d616769632e61707073706f742e636f6d2f6f2f696d6725324670726f647563745f32372e6a70673f616c743d6d6564696126746f6b656e3d34363263663037362d356134612d343237392d613562332d61313433646366343038333168747470733a2f2f666972656261736573746f726167652e676f6f676c65617069732e636f6d2f76302f622f6d616e676f2d6d616769632e61707073706f742e636f6d2f6f2f696d6725324670726f647563745f332e6a70673f616c743d6d6564696126746f6b656e3d62653262663938662d333538652d346131352d626561322d66303362383861643832393468747470733a2f2f666972656261736573746f726167652e676f6f676c65617069732e636f6d2f76302f622f6d616e676f2d6d616769632e61707073706f742e636f6d2f6f2f696d6725324670726f647563745f31372e6a70673f616c743d6d6564696126746f6b656e3d62643330633937392d373137642d346236322d613234352d63343337343132346436316668747470733a2f2f666972656261736573746f726167652e676f6f676c65617069732e636f6d2f76302f622f6d616e676f2d6d616769632e61707073706f742e636f6d2f6f2f696d6725324670726f647563745f32362e6a70673f616c743d6d6564696126746f6b656e3d64336139303437642d363831362d343230392d383464332d30666638346430353466376268747470733a2f2f666972656261736573746f726167652e676f6f676c65617069732e636f6d2f76302f622f6d616e676f2d6d616769632e61707073706f742e636f6d2f6f2f696d6725324670726f647563745f362e6a70673f616c743d6d6564696126746f6b656e3d36666430373565662d353733382d343361612d613265342d61613835336631613930343068747470733a2f2f666972656261736573746f726167652e676f6f676c65617069732e636f6d2f76302f622f6d616e676f2d6d616769632e61707073706f742e636f6d2f6f2f696d6725324670726f647563745f31312e6a70673f616c743d6d6564696126746f6b656e3d34316163633761352d353836332d343739612d386536302d36363864316639353061653168747470733a2f2f666972656261736573746f726167652e676f6f676c65617069732e636f6d2f76302f622f6d616e676f2d6d616769632e61707073706f742e636f6d2f6f2f696d6725324670726f647563745f342e6a70673f616c743d6d6564696126746f6b656e3d39373537623230332d613162392d346138322d383663342d366638626362646630363130",
  "source": "pragma solidity ^0.4.17;\n\ncontract Shop {\n\n\t// Model Product\n\tstruct Product{\n\t\tuint pId;\n\t\tstring pName;\n\t\tuint   quantity;\n\t\tstring description;\n\t\tuint price;\n\t\tstring img;\n\t\taddress owner;\n\t\tbool available;\n\t\tstring cat;\n\t}\n\n\n\tevent productAdded(uint id);\n\t// event productAddFailed(uint quantity, uint price);\n\n\t// Store Products count\n\tuint public productsCount;\n\n\t// Store products\n\tmapping(uint => Product) public products;\n\n\t// function getProducts() public view return(mapping(uint => Product)) {\n\t// \treturn products;\n\t// }\n\n\tfunction Shop () public {\n\t\taddProduct(\"sweater\", 5, \"blue ladies sweater\", 30, \"https://firebasestorage.googleapis.com/v0/b/mango-magic.appspot.com/o/img%2Fproduct_1.jpg?alt=media&token=dfce0df2-a96e-43c2-a8f0-bc0ffd7a6dca\",\"ladies\");\n\t\taddProduct(\"pants\", 2, \"grey pants\", 70, \"https://firebasestorage.googleapis.com/v0/b/mango-magic.appspot.com/o/img%2Fproduct_11.jpg?alt=media&token=41acc7a5-5863-479a-8e60-668d1f950ae1\",\"men\");\n\t\taddProduct(\"Suit\", 10, \"purplish blue Suit\", 100, \"https://firebasestorage.googleapis.com/v0/b/mango-magic.appspot.com/o/img%2Fproduct_10.jpg?alt=media&token=7cde2a0d-a9ba-4f74-8922-cb5433bb90e1\",\"men\");\n\t\taddProduct(\"jacket\", 20, \"Black jacket\", 55, \"https://firebasestorage.googleapis.com/v0/b/mango-magic.appspot.com/o/img%2Fproduct_17.jpg?alt=media&token=bd30c979-717d-4b62-a245-c4374124d61f\",\"men\");\n\t\taddProduct(\"legging\", 50, \"black legging\", 39, \"https://firebasestorage.googleapis.com/v0/b/mango-magic.appspot.com/o/img%2Fproduct_3.jpg?alt=media&token=be2bf98f-358e-4a15-bea2-f03b88ad8294\",\"ladies\");\n\t\taddProduct(\"jeans\", 30, \"blue jeans\", 40, \"https://firebasestorage.googleapis.com/v0/b/mango-magic.appspot.com/o/img%2Fproduct_27.jpg?alt=media&token=462cf076-5a4a-4279-a5b3-a143dcf40831\",\"men\");\n\t\taddProduct(\"hoodie\", 15, \"yellow hoodie\", 49, \"https://firebasestorage.googleapis.com/v0/b/mango-magic.appspot.com/o/img%2Fproduct_4.jpg?alt=media&token=9757b203-a1b9-4a82-86c4-6f8bcbdf0610\",\"ladies\");\n\t\taddProduct(\"hoodie\", 8, \"grey hoodie\", 48, \"https://firebasestorage.googleapis.com/v0/b/mango-magic.appspot.com/o/img%2Fproduct_6.jpg?alt=media&token=6fd075ef-5738-43aa-a2e4-aa853f1a9040\",\"ladies\");\n\t\taddProduct(\"jeans\", 1, \"blue jeans\", 47, \"https://firebasestorage.googleapis.com/v0/b/mango-magic.appspot.com/o/img%2Fproduct_21.jpg?alt=media&token=33997c6b-76dd-40ab-9565-061eb207266b\",\"ladies\");\n\t\taddProduct(\"sweater\", 1, \"black ladies sweater\", 46, \"https://firebasestorage.googleapis.com/v0/b/mango-magic.appspot.com/o/img%2Fproduct_26.jpg?alt=media&token=d3a9047d-6816-4209-84d3-0ff84d054f7b\",\"ladies\");\n\t}\t\n\n\tfunction addProduct (string _pName, uint _quantity, string _description, uint _price, string _img, string _cat) public returns (bool succcess) {\n\t\taddress _owner = msg.sender;\n\t\tproductsCount++;\n\n\t\tvar newProduct = Product(productsCount, _pName, _quantity, _description, _price, _img, _owner,true, _cat);\n\t\tif(validProduct(newProduct)){\n\t\t\tproducts[productsCount] = newProduct;\n\t\t\tproductAdded(productsCount);\n\t\t\treturn true;\n\t\t}\n\t\t// productAddFailed(_quantity,_price);\n\t\t// productsCount--;\n\t\treturn false;\n\t}\n\n\tfunction validProduct(Product product) private returns (bool valid){\n\t\treturn (product.price>=0 && product.quantity>0);\n\t}\n\n\t// Update product \n\tfunction updateProduct (uint _pId, string newName, uint newQuantity, string newDescription, uint newPrice, string newImgUrl, string newCat) public {\n\t\t// require valid pId\n\t\trequire(_pId >0 && _pId<= productsCount);\n\t\t// require product is available\n\t\trequire(products[_pId].available);\n\t\t// require only msg sender is onwer \n\t\trequire(msg.sender == products[_pId].owner);\n\t\t// change product price\n\n\t\t// Update product details\n\t\tproducts[_pId].pName = newName;\n\t\tproducts[_pId].quantity = newQuantity;\n\t\tproducts[_pId].description = newDescription;\n\t\tproducts[_pId].price = newPrice;\n\t\tproducts[_pId].img = newImgUrl;\n\t\tproducts[_pId].cat = newCat;\n\t}\n\n\tfunction buyProduct(uint _pId, uint num) public {\n\t\tproducts[_pId].quantity-=num;\n\t}\n\n\n}",
  "sourcePath": "/Users/Damon/Documents/18Spring/comp9900/mango-magic/DApp_shopping_cart/contracts/Shop.sol",
  "compiler": {
    "name": "solc",
    "version": "0.4.19+commit.c4cbbb05.Emscripten.clang"
  },
  "schemaVersion": "2.0.0",
  "updatedAt": "2018-05-14T17:08:05.650Z"
}