{
  "contractName": "Product",
  "abi": [
    {
      "inputs": [],
      "payable": false,
      "stateMutability": "nonpayable",
      "type": "constructor"
    },
    {
      "constant": false,
      "inputs": [
        {
          "name": "_id",
          "type": "uint256"
        }
      ],
      "name": "setId",
      "outputs": [],
      "payable": false,
      "stateMutability": "nonpayable",
      "type": "function"
    },
    {
      "constant": true,
      "inputs": [],
      "name": "getId",
      "outputs": [
        {
          "name": "",
          "type": "uint256"
        }
      ],
      "payable": false,
      "stateMutability": "view",
      "type": "function"
    },
    {
      "constant": false,
      "inputs": [
        {
          "name": "_pName",
          "type": "bytes32"
        }
      ],
      "name": "setName",
      "outputs": [],
      "payable": false,
      "stateMutability": "nonpayable",
      "type": "function"
    },
    {
      "constant": true,
      "inputs": [],
      "name": "getName",
      "outputs": [
        {
          "name": "",
          "type": "bytes32"
        }
      ],
      "payable": false,
      "stateMutability": "view",
      "type": "function"
    },
    {
      "constant": false,
      "inputs": [
        {
          "name": "_quantity",
          "type": "uint256"
        }
      ],
      "name": "setQty",
      "outputs": [],
      "payable": false,
      "stateMutability": "nonpayable",
      "type": "function"
    },
    {
      "constant": true,
      "inputs": [],
      "name": "getQty",
      "outputs": [
        {
          "name": "",
          "type": "uint256"
        }
      ],
      "payable": false,
      "stateMutability": "view",
      "type": "function"
    },
    {
      "constant": false,
      "inputs": [
        {
          "name": "_description",
          "type": "string"
        }
      ],
      "name": "setDescription",
      "outputs": [],
      "payable": false,
      "stateMutability": "nonpayable",
      "type": "function"
    },
    {
      "constant": true,
      "inputs": [],
      "name": "getDescription",
      "outputs": [
        {
          "name": "",
          "type": "string"
        }
      ],
      "payable": false,
      "stateMutability": "view",
      "type": "function"
    },
    {
      "constant": false,
      "inputs": [
        {
          "name": "_image",
          "type": "string"
        }
      ],
      "name": "setImage",
      "outputs": [],
      "payable": false,
      "stateMutability": "nonpayable",
      "type": "function"
    },
    {
      "constant": true,
      "inputs": [],
      "name": "getImage",
      "outputs": [
        {
          "name": "",
          "type": "string"
        }
      ],
      "payable": false,
      "stateMutability": "view",
      "type": "function"
    },
    {
      "constant": false,
      "inputs": [
        {
          "name": "_price",
          "type": "uint256"
        }
      ],
      "name": "setPrice",
      "outputs": [],
      "payable": false,
      "stateMutability": "nonpayable",
      "type": "function"
    },
    {
      "constant": true,
      "inputs": [],
      "name": "getPrice",
      "outputs": [
        {
          "name": "",
          "type": "uint256"
        }
      ],
      "payable": false,
      "stateMutability": "view",
      "type": "function"
    }
  ],
  "bytecode": "0x6060604052341561000f57600080fd5b61068e8061001e6000396000f3006060604052600436106100ba576000357c0100000000000000000000000000000000000000000000000000000000900463ffffffff16806308813081146100bf57806317d7de7c146100e25780631a092541146101135780635ac801fe146101a15780635d1ca631146101c857806371adb5e6146101f157806390c3f38f1461024e57806391b7f5ed146102ab57806398d5fdca146102ce578063d0e0ba95146102f7578063dbe9d3381461031a578063f3651cbb14610343575b600080fd5b34156100ca57600080fd5b6100e060048080359060200190919050506103d1565b005b34156100ed57600080fd5b6100f56103db565b60405180826000191660001916815260200191505060405180910390f35b341561011e57600080fd5b6101266103e5565b6040518080602001828103825283818151815260200191508051906020019080838360005b8381101561016657808201518184015260208101905061014b565b50505050905090810190601f1680156101935780820380516001836020036101000a031916815260200191505b509250505060405180910390f35b34156101ac57600080fd5b6101c660048080356000191690602001909190505061048d565b005b34156101d357600080fd5b6101db61049b565b6040518082815260200191505060405180910390f35b34156101fc57600080fd5b61024c600480803590602001908201803590602001908080601f016020809104026020016040519081016040528093929190818152602001838380828437820191505050505050919050506104a5565b005b341561025957600080fd5b6102a9600480803590602001908201803590602001908080601f016020809104026020016040519081016040528093929190818152602001838380828437820191505050505050919050506104bf565b005b34156102b657600080fd5b6102cc60048080359060200190919050506104d9565b005b34156102d957600080fd5b6102e16104e3565b6040518082815260200191505060405180910390f35b341561030257600080fd5b61031860048080359060200190919050506104ed565b005b341561032557600080fd5b61032d6104f7565b6040518082815260200191505060405180910390f35b341561034e57600080fd5b610356610501565b6040518080602001828103825283818151815260200191508051906020019080838360005b8381101561039657808201518184015260208101905061037b565b50505050905090810190601f1680156103c35780820380516001836020036101000a031916815260200191505b509250505060405180910390f35b8060038190555050565b6000600254905090565b6103ed6105a9565b60048054600181600116156101000203166002900480601f0160208091040260200160405190810160405280929190818152602001828054600181600116156101000203166002900480156104835780601f1061045857610100808354040283529160200191610483565b820191906000526020600020905b81548152906001019060200180831161046657829003601f168201915b5050505050905090565b806002816000191690555050565b6000600154905090565b80600590805190602001906104bb9291906105bd565b5050565b80600490805190602001906104d59291906105bd565b5050565b8060068190555050565b6000600654905090565b8060018190555050565b6000600354905090565b6105096105a9565b60058054600181600116156101000203166002900480601f01602080910402602001604051908101604052809291908181526020018280546001816001161561010002031660029004801561059f5780601f106105745761010080835404028352916020019161059f565b820191906000526020600020905b81548152906001019060200180831161058257829003601f168201915b5050505050905090565b602060405190810160405280600081525090565b828054600181600116156101000203166002900490600052602060002090601f016020900481019282601f106105fe57805160ff191683800117855561062c565b8280016001018555821561062c579182015b8281111561062b578251825591602001919060010190610610565b5b509050610639919061063d565b5090565b61065f91905b8082111561065b576000816000905550600101610643565b5090565b905600a165627a7a723058203b5fada5bc535286c861f939eb320b9eea4e0fce3f5f28aaf9625f2e05402f760029",
  "source": "pragma solidity ^0.4.17;\n\ncontract Product {\n\n\taddress private owner;\n\tuint pId;\n\tbytes32 pName;\n\tuint   quantity;\n\tstring description;\n\tstring image;\n\tuint price;\n\tenum product_States {available, unavailable}\n\t\n\tfunction Product() public {\n\t\t\n\t}\n\n\tfunction setId(uint _id) public {\n\t\tpId = _id;\n\t}\n\n\tfunction getId() view public returns (uint){\n\t\treturn pId;\n\t}\n\t\n\tfunction setName(bytes32 _pName) public {\n\t\tpName = _pName;\n\t}\n\t\n\tfunction getName() view public returns (bytes32) {\n\t\treturn pName;\n\t}\n\t\n\tfunction setQty(uint _quantity) public {\n\t\tquantity = _quantity;\n\t}\n\t\n\tfunction getQty() view public returns (uint) {\n\t\treturn quantity;\n\t}\n\n\tfunction setDescription(string _description) public {\n\t\tdescription = _description;\n\t}\n\t\n\tfunction getDescription() view public returns (string) {\n\t\treturn description;\n\t}\n\n\tfunction setImage(string _image) public {\n\t\timage = _image;\n\t}\n\t\n\tfunction getImage() view public returns (string) {\n\t\treturn image;\n\t}\n\n\tfunction setPrice(uint _price) public {\n\t\tprice = _price;\n\t}\n\t\n\tfunction getPrice() view public returns (uint) {\n\t\treturn price;\n\t}\n\n\n}",
  "sourcePath": "/Users/Damon/Documents/18Spring/comp9900/project/mango-magic/DApp_shopping_cart/contracts/Product.sol",
  "compiler": {
    "name": "solc",
    "version": "0.4.19+commit.c4cbbb05.Emscripten.clang"
  },
  "schemaVersion": "2.0.0",
  "updatedAt": "2018-04-12T15:51:29.590Z"
}