{
  "contractName": "Shop",
  "abi": [
    {
      "constant": true,
      "inputs": [
        {
          "name": "",
          "type": "address"
        }
      ],
      "name": "balances",
      "outputs": [
        {
          "name": "",
          "type": "uint256"
        }
      ],
      "payable": false,
      "stateMutability": "view",
      "type": "function"
    },
    {
      "constant": true,
      "inputs": [
        {
          "name": "",
          "type": "uint256"
        }
      ],
      "name": "products",
      "outputs": [
        {
          "name": "pId",
          "type": "uint256"
        },
        {
          "name": "pName",
          "type": "string"
        },
        {
          "name": "quantity",
          "type": "uint256"
        },
        {
          "name": "description",
          "type": "string"
        },
        {
          "name": "price",
          "type": "uint256"
        },
        {
          "name": "img",
          "type": "string"
        },
        {
          "name": "owner",
          "type": "address"
        },
        {
          "name": "available",
          "type": "bool"
        },
        {
          "name": "cat",
          "type": "string"
        }
      ],
      "payable": false,
      "stateMutability": "view",
      "type": "function"
    },
    {
      "constant": true,
      "inputs": [],
      "name": "productsCount",
      "outputs": [
        {
          "name": "",
          "type": "uint256"
        }
      ],
      "payable": false,
      "stateMutability": "view",
      "type": "function"
    },
    {
      "inputs": [],
      "payable": false,
      "stateMutability": "nonpayable",
      "type": "constructor"
    },
    {
      "anonymous": false,
      "inputs": [
        {
          "indexed": false,
          "name": "id",
          "type": "uint256"
        }
      ],
      "name": "logProductAdded",
      "type": "event"
    },
    {
      "anonymous": false,
      "inputs": [
        {
          "indexed": false,
          "name": "sender",
          "type": "address"
        },
        {
          "indexed": false,
          "name": "amount",
          "type": "uint256"
        }
      ],
      "name": "logDeposit",
      "type": "event"
    },
    {
      "anonymous": false,
      "inputs": [
        {
          "indexed": false,
          "name": "receiver",
          "type": "address"
        },
        {
          "indexed": false,
          "name": "amount",
          "type": "uint256"
        }
      ],
      "name": "logRefund",
      "type": "event"
    },
    {
      "anonymous": false,
      "inputs": [
        {
          "indexed": false,
          "name": "sender",
          "type": "address"
        },
        {
          "indexed": false,
          "name": "to",
          "type": "address"
        },
        {
          "indexed": false,
          "name": "amount",
          "type": "uint256"
        }
      ],
      "name": "logTransfer",
      "type": "event"
    },
    {
      "anonymous": false,
      "inputs": [
        {
          "indexed": false,
          "name": "id",
          "type": "uint256"
        }
      ],
      "name": "logProductUpdated",
      "type": "event"
    },
    {
      "constant": false,
      "inputs": [
        {
          "name": "_pId",
          "type": "uint256"
        },
        {
          "name": "_num",
          "type": "uint256"
        }
      ],
      "name": "deposit",
      "outputs": [
        {
          "name": "success",
          "type": "bool"
        }
      ],
      "payable": true,
      "stateMutability": "payable",
      "type": "function"
    },
    {
      "constant": false,
      "inputs": [
        {
          "name": "value",
          "type": "uint256"
        },
        {
          "name": "_pId",
          "type": "uint256"
        },
        {
          "name": "_num",
          "type": "uint256"
        }
      ],
      "name": "refund",
      "outputs": [
        {
          "name": "success",
          "type": "bool"
        }
      ],
      "payable": false,
      "stateMutability": "nonpayable",
      "type": "function"
    },
    {
      "constant": false,
      "inputs": [
        {
          "name": "to",
          "type": "address"
        },
        {
          "name": "value",
          "type": "uint256"
        }
      ],
      "name": "confirmTransfer",
      "outputs": [
        {
          "name": "success",
          "type": "bool"
        }
      ],
      "payable": false,
      "stateMutability": "nonpayable",
      "type": "function"
    },
    {
      "constant": false,
      "inputs": [
        {
          "name": "_pName",
          "type": "string"
        },
        {
          "name": "_quantity",
          "type": "uint256"
        },
        {
          "name": "_description",
          "type": "string"
        },
        {
          "name": "_price",
          "type": "uint256"
        },
        {
          "name": "_img",
          "type": "string"
        },
        {
          "name": "_cat",
          "type": "string"
        }
      ],
      "name": "addProduct",
      "outputs": [
        {
          "name": "succcess",
          "type": "bool"
        }
      ],
      "payable": false,
      "stateMutability": "nonpayable",
      "type": "function"
    },
    {
      "constant": false,
      "inputs": [
        {
          "name": "_pId",
          "type": "uint256"
        },
        {
          "name": "newName",
          "type": "string"
        },
        {
          "name": "newQuantity",
          "type": "uint256"
        },
        {
          "name": "newDescription",
          "type": "string"
        },
        {
          "name": "newPrice",
          "type": "uint256"
        },
        {
          "name": "newImgUrl",
          "type": "string"
        },
        {
          "name": "newCat",
          "type": "string"
        }
      ],
      "name": "updateProduct",
      "outputs": [],
      "payable": false,
      "stateMutability": "nonpayable",
      "type": "function"
    },
    {
      "constant": false,
      "inputs": [
        {
          "name": "_pId",
          "type": "uint256"
        },
        {
          "name": "num",
          "type": "uint256"
        }
      ],
      "name": "buyProduct",
      "outputs": [],
      "payable": false,
      "stateMutability": "nonpayable",
      "type": "function"
    },
    {
      "constant": false,
      "inputs": [
        {
          "name": "_pId",
          "type": "uint256"
        },
        {
          "name": "num",
          "type": "uint256"
        }
      ],
      "name": "returnProduct",
      "outputs": [],
      "payable": false,
      "stateMutability": "nonpayable",
      "type": "function"
    },
    {
      "constant": false,
      "inputs": [
        {
          "name": "_pId",
          "type": "uint256"
        },
        {
          "name": "_available",
          "type": "bool"
        }
      ],
      "name": "changeStatus",
      "outputs": [],
      "payable": false,
      "stateMutability": "nonpayable",
      "type": "function"
    }
  ],
  "bytecode": "0x606060405234156200001057600080fd5b620000ef6040805190810160405280600781526020017f737765617465720000000000000000000000000000000000000000000000000081525060056040805190810160405280601381526020017f626c7565206c6164696573207377656174657200000000000000000000000000815250601e60c060405190810160405280608e8152602001620017f9608e91396040805190810160405280600681526020017f6c61646965730000000000000000000000000000000000000000000000000000815250620001d66401000000000262000b42176401000000009004565b50620001cf6040805190810160405280600581526020017f70616e747300000000000000000000000000000000000000000000000000000081525060026040805190810160405280600a81526020017f677265792070616e747300000000000000000000000000000000000000000000815250604660c060405190810160405280608f815260200162001887608f91396040805190810160405280600381526020017f6d656e0000000000000000000000000000000000000000000000000000000000815250620001d66401000000000262000b42176401000000009004565b5062000552565b600080620001e36200040a565b33915060008081548092919060010191905055506101206040519081016040528060005481526020018a81526020018981526020018881526020018781526020018681526020018373ffffffffffffffffffffffffffffffffffffffff1681526020016001151581526020018581525090506200027481620003e86401000000000262001094176401000000009004565b15620003d757806001600080548152602001908152602001600020600082015181600001556020820151816001019080519060200190620002b79291906200048f565b50604082015181600201556060820151816003019080519060200190620002e09291906200048f565b506080820151816004015560a0820151816005019080519060200190620003099291906200048f565b5060c08201518160060160006101000a81548173ffffffffffffffffffffffffffffffffffffffff021916908373ffffffffffffffffffffffffffffffffffffffff16021790555060e08201518160060160146101000a81548160ff021916908315150217905550610100820151816007019080519060200190620003909291906200048f565b509050507f6954968b28e74718c52c5003aa73159aa71544b56ea7d088bf2b95ca021d61306000546040518082815260200191505060405180910390a160019250620003dc565b600092505b50509695505050505050565b60008082608001511015801562000403575060008260400151115b9050919050565b61012060405190810160405280600081526020016200042862000516565b8152602001600081526020016200043e62000516565b8152602001600081526020016200045462000516565b8152602001600073ffffffffffffffffffffffffffffffffffffffff1681526020016000151581526020016200048962000516565b81525090565b828054600181600116156101000203166002900490600052602060002090601f016020900481019282601f10620004d257805160ff191683800117855562000503565b8280016001018555821562000503579182015b8281111562000502578251825591602001919060010190620004e5565b5b5090506200051291906200052a565b5090565b602060405190810160405280600081525090565b6200054f91905b808211156200054b57600081600090555060010162000531565b5090565b90565b61129780620005626000396000f3006060604052600436106100af576000357c0100000000000000000000000000000000000000000000000000000000900463ffffffff1680631b3d21c3146100b4578063250e3a92146101f557806327e235e31461024f57806343c56a0a1461029c57806353b62866146103ec5780637acc0b2014610418578063af191a0c146106bf578063ca47b8c21461070c578063e0df7bb614610738578063e2bbb15814610761578063fa2693b31461079a575b600080fd5b34156100bf57600080fd5b6101f3600480803590602001909190803590602001908201803590602001908080601f0160208091040260200160405190810160405280939291908181526020018383808284378201915050505050509190803590602001909190803590602001908201803590602001908080601f0160208091040260200160405190810160405280939291908181526020018383808284378201915050505050509190803590602001909190803590602001908201803590602001908080601f0160208091040260200160405190810160405280939291908181526020018383808284378201915050505050509190803590602001908201803590602001908080601f016020809104026020016040519081016040528093929190818152602001838380828437820191505050505050919050506107c8565b005b341561020057600080fd5b610235600480803573ffffffffffffffffffffffffffffffffffffffff169060200190919080359060200190919050506109a6565b604051808215151515815260200191505060405180910390f35b341561025a57600080fd5b610286600480803573ffffffffffffffffffffffffffffffffffffffff16906020019091905050610b2a565b6040518082815260200191505060405180910390f35b34156102a757600080fd5b6103d2600480803590602001908201803590602001908080601f0160208091040260200160405190810160405280939291908181526020018383808284378201915050505050509190803590602001909190803590602001908201803590602001908080601f0160208091040260200160405190810160405280939291908181526020018383808284378201915050505050509190803590602001909190803590602001908201803590602001908080601f0160208091040260200160405190810160405280939291908181526020018383808284378201915050505050509190803590602001908201803590602001908080601f01602080910402602001604051908101604052809392919081815260200183838082843782019150505050505091905050610b42565b604051808215151515815260200191505060405180910390f35b34156103f757600080fd5b6104166004808035906020019091908035906020019091905050610d32565b005b341561042357600080fd5b6104396004808035906020019091905050610d5a565b604051808a81526020018060200189815260200180602001888152602001806020018773ffffffffffffffffffffffffffffffffffffffff1673ffffffffffffffffffffffffffffffffffffffff168152602001861515151581526020018060200185810385528d81815460018160011615610100020316600290048152602001915080546001816001161561010002031660029004801561051c5780601f106104f15761010080835404028352916020019161051c565b820191906000526020600020905b8154815290600101906020018083116104ff57829003601f168201915b505085810384528b81815460018160011615610100020316600290048152602001915080546001816001161561010002031660029004801561059f5780601f106105745761010080835404028352916020019161059f565b820191906000526020600020905b81548152906001019060200180831161058257829003601f168201915b50508581038352898181546001816001161561010002031660029004815260200191508054600181600116156101000203166002900480156106225780601f106105f757610100808354040283529160200191610622565b820191906000526020600020905b81548152906001019060200180831161060557829003601f168201915b50508581038252868181546001816001161561010002031660029004815260200191508054600181600116156101000203166002900480156106a55780601f1061067a576101008083540402835291602001916106a5565b820191906000526020600020905b81548152906001019060200180831161068857829003601f168201915b50509d505050505050505050505050505060405180910390f35b34156106ca57600080fd5b6106f26004808035906020019091908035906020019091908035906020019091905050610dd1565b604051808215151515815260200191505060405180910390f35b341561071757600080fd5b6107366004808035906020019091908035906020019091905050610f2c565b005b341561074357600080fd5b61074b610f71565b6040518082815260200191505060405180910390f35b6107806004808035906020019091908035906020019091905050610f77565b604051808215151515815260200191505060405180910390f35b34156107a557600080fd5b6107c660048080359060200190919080351515906020019091905050611045565b005b6000871180156107da57506000548711155b15156107e557600080fd5b6001600088815260200190815260200160002060060160149054906101000a900460ff16151561081457600080fd5b6001600088815260200190815260200160002060060160009054906101000a900473ffffffffffffffffffffffffffffffffffffffff1673ffffffffffffffffffffffffffffffffffffffff163373ffffffffffffffffffffffffffffffffffffffff1614151561088457600080fd5b856001600089815260200190815260200160002060010190805190602001906108ae9291906110b5565b50846001600089815260200190815260200160002060020181905550836001600089815260200190815260200160002060030190805190602001906108f49291906110b5565b508260016000898152602001908152602001600020600401819055508160016000898152602001908152602001600020600501908051906020019061093a9291906110b5565b50806001600089815260200190815260200160002060070190805190602001906109659291906110b5565b507fd60958f72cbaf3decdd8a30c8a04facf26d915877bdd489df01d7c32c9b97e57876040518082815260200191505060405180910390a150505050505050565b600081600260003373ffffffffffffffffffffffffffffffffffffffff1673ffffffffffffffffffffffffffffffffffffffff1681526020019081526020016000205410156109f457600080fd5b81600260003373ffffffffffffffffffffffffffffffffffffffff1673ffffffffffffffffffffffffffffffffffffffff168152602001908152602001600020600082825403925050819055508273ffffffffffffffffffffffffffffffffffffffff166108fc839081150290604051600060405180830381858888f193505050501515610a8157600080fd5b7ff51ac9361330b8b5120b4f20740309667afff70d6a4e9c238596dfa3ddc50aaa338484604051808473ffffffffffffffffffffffffffffffffffffffff1673ffffffffffffffffffffffffffffffffffffffff1681526020018373ffffffffffffffffffffffffffffffffffffffff1673ffffffffffffffffffffffffffffffffffffffff168152602001828152602001935050505060405180910390a16001905092915050565b60026020528060005260406000206000915090505481565b600080610b4d611135565b33915060008081548092919060010191905055506101206040519081016040528060005481526020018a81526020018981526020018881526020018781526020018681526020018373ffffffffffffffffffffffffffffffffffffffff168152602001600115158152602001858152509050610bc881611094565b15610d2157806001600080548152602001908152602001600020600082015181600001556020820151816001019080519060200190610c089291906111b2565b50604082015181600201556060820151816003019080519060200190610c2f9291906111b2565b506080820151816004015560a0820151816005019080519060200190610c569291906111b2565b5060c08201518160060160006101000a81548173ffffffffffffffffffffffffffffffffffffffff021916908373ffffffffffffffffffffffffffffffffffffffff16021790555060e08201518160060160146101000a81548160ff021916908315150217905550610100820151816007019080519060200190610cdb9291906111b2565b509050507f6954968b28e74718c52c5003aa73159aa71544b56ea7d088bf2b95ca021d61306000546040518082815260200191505060405180910390a160019250610d26565b600092505b50509695505050505050565b8060016000848152602001908152602001600020600201600082825403925050819055505050565b60016020528060005260406000206000915090508060000154908060010190806002015490806003019080600401549080600501908060060160009054906101000a900473ffffffffffffffffffffffffffffffffffffffff16908060060160149054906101000a900460ff169080600701905089565b600083600260003373ffffffffffffffffffffffffffffffffffffffff1673ffffffffffffffffffffffffffffffffffffffff168152602001908152602001600020541015610e1f57600080fd5b83600260003373ffffffffffffffffffffffffffffffffffffffff1673ffffffffffffffffffffffffffffffffffffffff168152602001908152602001600020600082825403925050819055503373ffffffffffffffffffffffffffffffffffffffff166108fc859081150290604051600060405180830381858888f193505050501515610eac57600080fd5b610eb68383610f2c565b7f49edf7c86127c1608cf96e92df64e10a00257c39729301dc3d1efda57bcda1343385604051808373ffffffffffffffffffffffffffffffffffffffff1673ffffffffffffffffffffffffffffffffffffffff1681526020018281526020019250505060405180910390a1600190509392505050565b600082118015610f3e57506000548211155b1515610f4957600080fd5b8060016000848152602001908152602001600020600201600082825401925050819055505050565b60005481565b600034600260003373ffffffffffffffffffffffffffffffffffffffff1673ffffffffffffffffffffffffffffffffffffffff16815260200190815260200160002060008282540192505081905550610fd08383610d32565b7f23009393721a27d6803b599bf9f0747edfd97c6fe82522bedeb95c05150c9b403334604051808373ffffffffffffffffffffffffffffffffffffffff1673ffffffffffffffffffffffffffffffffffffffff1681526020018281526020019250505060405180910390a16001905092915050565b60008211801561105757506000548211155b151561106257600080fd5b806001600084815260200190815260200160002060060160146101000a81548160ff0219169083151502179055505050565b6000808260800151101580156110ae575060008260400151115b9050919050565b828054600181600116156101000203166002900490600052602060002090601f016020900481019282601f106110f657805160ff1916838001178555611124565b82800160010185558215611124579182015b82811115611123578251825591602001919060010190611108565b5b5090506111319190611232565b5090565b6101206040519081016040528060008152602001611151611257565b815260200160008152602001611165611257565b815260200160008152602001611179611257565b8152602001600073ffffffffffffffffffffffffffffffffffffffff1681526020016000151581526020016111ac611257565b81525090565b828054600181600116156101000203166002900490600052602060002090601f016020900481019282601f106111f357805160ff1916838001178555611221565b82800160010185558215611221579182015b82811115611220578251825591602001919060010190611205565b5b50905061122e9190611232565b5090565b61125491905b80821115611250576000816000905550600101611238565b5090565b90565b6020604051908101604052806000815250905600a165627a7a72305820f022445f31610a59f997a6ab7c5455185755aa2d3332eb24b745058627dd86a3002968747470733a2f2f666972656261736573746f726167652e676f6f676c65617069732e636f6d2f76302f622f6d616e676f2d6d616769632e61707073706f742e636f6d2f6f2f696d6725324670726f647563745f312e6a70673f616c743d6d6564696126746f6b656e3d64666365306466322d613936652d343363322d613866302d62633066666437613664636168747470733a2f2f666972656261736573746f726167652e676f6f676c65617069732e636f6d2f76302f622f6d616e676f2d6d616769632e61707073706f742e636f6d2f6f2f696d6725324670726f647563745f31312e6a70673f616c743d6d6564696126746f6b656e3d34316163633761352d353836332d343739612d386536302d363638643166393530616531",
  "source": "pragma solidity ^0.4.17;\n\ncontract Shop {\n\n\t// Model Product\n\tstruct Product{\n\t\tuint pId;\n\t\tstring pName;\n\t\tuint   quantity;\n\t\tstring description;\n\t\tuint price;\n\t\tstring img;\n\t\taddress owner;\n\t\tbool available;\n\t\tstring cat;\n\t}\n\n\n\n\tevent logProductAdded(uint id);\n\tevent logDeposit(address sender, uint amount);\n    event logRefund(address receiver, uint amount);\n    event logTransfer(address sender, address to, uint amount);\n    event logProductUpdated(uint id);\n\n\t// Store Products count\n\tuint public productsCount;\n\n\t// Store products\n\tmapping(uint => Product) public products;\n\n\n\t// Store balance, between transaction\n\tmapping (address => uint256) public balances;\n\n\t// Buyer send money to contract\n\tfunction deposit(uint _pId, uint _num) payable public returns(bool success) {\n        balances[msg.sender] +=msg.value;\n        buyProduct(_pId,_num);\n        logDeposit(msg.sender, msg.value);\n        return true;\n    }\n\n    // Send money back to buyer\n    function refund(uint value, uint _pId, uint _num) public returns(bool success) {\n        if(balances[msg.sender] < value) throw;\n        balances[msg.sender] -= value;\n        msg.sender.transfer(value);\n   \t\treturnProduct(_pId,_num);\n   \t\tlogRefund(msg.sender, value);\n        return true;\n    }\n\n    // Transfer money to seller\n    function confirmTransfer(address to, uint value) public returns(bool success) {\n        if(balances[msg.sender] < value) throw;\n        balances[msg.sender] -= value;\n        to.transfer(value);\n        logTransfer(msg.sender, to, value);\n        return true;\n    }\n\n\tfunction Shop () public {\n\t\taddProduct(\"sweater\", 5, \"blue ladies sweater\", 30, \"https://firebasestorage.googleapis.com/v0/b/mango-magic.appspot.com/o/img%2Fproduct_1.jpg?alt=media&token=dfce0df2-a96e-43c2-a8f0-bc0ffd7a6dca\",\"ladies\");\n\t\taddProduct(\"pants\", 2, \"grey pants\", 70, \"https://firebasestorage.googleapis.com/v0/b/mango-magic.appspot.com/o/img%2Fproduct_11.jpg?alt=media&token=41acc7a5-5863-479a-8e60-668d1f950ae1\",\"men\");\n\t\t// addProduct(\"Suit\", 10, \"purplish blue Suit\", 100, \"https://firebasestorage.googleapis.com/v0/b/mango-magic.appspot.com/o/img%2Fproduct_10.jpg?alt=media&token=7cde2a0d-a9ba-4f74-8922-cb5433bb90e1\",\"men\");\n\t\t// addProduct(\"jacket\", 20, \"Black jacket\", 55, \"https://firebasestorage.googleapis.com/v0/b/mango-magic.appspot.com/o/img%2Fproduct_17.jpg?alt=media&token=bd30c979-717d-4b62-a245-c4374124d61f\",\"men\");\n\t\t// addProduct(\"legging\", 50, \"black legging\", 39, \"https://firebasestorage.googleapis.com/v0/b/mango-magic.appspot.com/o/img%2Fproduct_3.jpg?alt=media&token=be2bf98f-358e-4a15-bea2-f03b88ad8294\",\"ladies\");\n\t\t// addProduct(\"jeans\", 30, \"blue jeans\", 40, \"https://firebasestorage.googleapis.com/v0/b/mango-magic.appspot.com/o/img%2Fproduct_27.jpg?alt=media&token=462cf076-5a4a-4279-a5b3-a143dcf40831\",\"men\");\n\t\t// addProduct(\"hoodie\", 15, \"yellow hoodie\", 49, \"https://firebasestorage.googleapis.com/v0/b/mango-magic.appspot.com/o/img%2Fproduct_4.jpg?alt=media&token=9757b203-a1b9-4a82-86c4-6f8bcbdf0610\",\"ladies\");\n\t\t// addProduct(\"hoodie\", 8, \"grey hoodie\", 48, \"https://firebasestorage.googleapis.com/v0/b/mango-magic.appspot.com/o/img%2Fproduct_6.jpg?alt=media&token=6fd075ef-5738-43aa-a2e4-aa853f1a9040\",\"ladies\");\n\t\t// addProduct(\"jeans\", 1, \"blue jeans\", 47, \"https://firebasestorage.googleapis.com/v0/b/mango-magic.appspot.com/o/img%2Fproduct_21.jpg?alt=media&token=33997c6b-76dd-40ab-9565-061eb207266b\",\"ladies\");\n\t\t// addProduct(\"sweater\", 1, \"black ladies sweater\", 46, \"https://firebasestorage.googleapis.com/v0/b/mango-magic.appspot.com/o/img%2Fproduct_26.jpg?alt=media&token=d3a9047d-6816-4209-84d3-0ff84d054f7b\",\"ladies\");\n\t\t// addProduct(\"Shirt and slipover\", 5, \"Shirt and slipover\", 45, \"https://firebasestorage.googleapis.com/v0/b/mango-magic.appspot.com/o/img%2Fkids_1.jpg?alt=media&token=ce3982cd-ae3c-4cc1-963d-c861510898e5\",\"kids\");\n\t\t// addProduct(\"Jacquard-knit jumper\", 8, \"Jacquard-knit jumper\", 44, \"https://firebasestorage.googleapis.com/v0/b/mango-magic.appspot.com/o/img%2Fkids_3.jpg?alt=media&token=62e3c96a-86f1-4a41-b6ea-e0159717ccb2\",\"kids\");\n\t\t// addProduct(\"cover set\", 7, \"Leaf-print cover set\", 43, \"https://firebasestorage.googleapis.com/v0/b/mango-magic.appspot.com/o/img%2Fothers_1.jpg?alt=media&token=063a3a5c-da73-46f9-8d4a-f25acf2a7480\",\"others\");\n\t\t// addProduct(\"cover set\", 15, \"pink cover set\", 42, \"https://firebasestorage.googleapis.com/v0/b/mango-magic.appspot.com/o/img%2Fothers_2.jpg?alt=media&token=fd171d4f-93fe-45c0-914e-e886e4393322\",\"others\");\n\t\t// addProduct(\"pillowcase\", 18, \"grey pillowcase\", 15, \"https://firebasestorage.googleapis.com/v0/b/mango-magic.appspot.com/o/img%2Fothers_3.jpg?alt=media&token=4900ef57-789a-47ea-b032-dcb58b61b321\",\"others\");\n\t}\t\n\n\tfunction addProduct (string _pName, uint _quantity, string _description, uint _price, string _img, string _cat) public returns (bool succcess) {\n\t\taddress _owner = msg.sender;\n\t\tproductsCount++;\n\n\t\tvar newProduct = Product(productsCount, _pName, _quantity, _description, _price, _img, _owner,true, _cat);\n\t\tif(validProduct(newProduct)){\n\t\t\tproducts[productsCount] = newProduct;\n\t\t\tlogProductAdded(productsCount);\n\t\t\treturn true;\n\t\t}\n\t\treturn false;\n\t}\n\n\tfunction validProduct(Product product) private returns (bool valid){\n\t\treturn (product.price>=0 && product.quantity>0);\n\t}\n\n\t// Update product \n\tfunction updateProduct (uint _pId, string newName, uint newQuantity, string newDescription, uint newPrice, string newImgUrl, string newCat) public {\n\t\t// require valid pId\n\t\trequire(_pId >0 && _pId<= productsCount);\n\t\t// require product is available\n\t\trequire(products[_pId].available);\n\t\t// require only msg sender is onwer \n\t\trequire(msg.sender == products[_pId].owner);\n\t\t// change product price\n\n\t\t// Update product details\n\t\tproducts[_pId].pName = newName;\n\t\tproducts[_pId].quantity = newQuantity;\n\t\tproducts[_pId].description = newDescription;\n\t\tproducts[_pId].price = newPrice;\n\t\tproducts[_pId].img = newImgUrl;\n\t\tproducts[_pId].cat = newCat;\n\t\tlogProductUpdated(_pId);\n\t}\n\n\t// after paying deposit, available number should decrease \n\tfunction buyProduct(uint _pId, uint num) public {\n\t\tproducts[_pId].quantity-=num;\n\t}\n\n\t// if order is canceled, available number should increase \n\tfunction returnProduct(uint _pId, uint num) public {\n\t\trequire(_pId >0 && _pId<= productsCount);\n\t\tproducts[_pId].quantity+=num;\n\t}\n\n\t// change product status\n\tfunction changeStatus (uint _pId, bool _available) public {\n\t\trequire(_pId >0 && _pId<= productsCount);\n\t\tproducts[_pId].available = _available;\n\t}\n\t\n\n}",
  "sourcePath": "/Users/wuyang/Desktop/bitbucket/DApp_shopping_cart/contracts/Shop.sol",
  "compiler": {
    "name": "solc",
    "version": "0.4.19+commit.c4cbbb05.Emscripten.clang"
  },
  "schemaVersion": "2.0.0",
  "updatedAt": "2018-05-25T10:47:44.377Z"
}