{
  "contractName": "transaction",
  "abi": [
    {
      "constant": true,
      "inputs": [
        {
          "name": "",
          "type": "uint256"
        }
      ],
      "name": "buyers",
      "outputs": [
        {
          "name": "",
          "type": "address"
        }
      ],
      "payable": false,
      "stateMutability": "view",
      "type": "function"
    },
    {
      "constant": false,
      "inputs": [
        {
          "name": "pId",
          "type": "uint256"
        }
      ],
      "name": "buy",
      "outputs": [
        {
          "name": "",
          "type": "uint256"
        }
      ],
      "payable": false,
      "stateMutability": "nonpayable",
      "type": "function"
    },
    {
      "constant": true,
      "inputs": [],
      "name": "getBuyers",
      "outputs": [
        {
          "name": "",
          "type": "address[16]"
        }
      ],
      "payable": false,
      "stateMutability": "view",
      "type": "function"
    }
  ],
  "bytecode": "0x6060604052341561000f57600080fd5b6102d08061001e6000396000f300606060405260043610610057576000357c0100000000000000000000000000000000000000000000000000000000900463ffffffff168063d96a094a1461005c578063f2aa821814610093578063f64bfaba146100f6575b600080fd5b341561006757600080fd5b61007d6004808035906020019091905050610147565b6040518082815260200191505060405180910390f35b341561009e57600080fd5b6100b460048080359060200190919050506101af565b604051808273ffffffffffffffffffffffffffffffffffffffff1673ffffffffffffffffffffffffffffffffffffffff16815260200191505060405180910390f35b341561010157600080fd5b6101096101e4565b6040518082601060200280838360005b83811015610134578082015181840152602081019050610119565b5050505090500191505060405180910390f35b600080821015151561015857600080fd5b3360008360108110151561016857fe5b0160006101000a81548173ffffffffffffffffffffffffffffffffffffffff021916908373ffffffffffffffffffffffffffffffffffffffff160217905550819050919050565b6000816010811015156101be57fe5b016000915054906101000a900473ffffffffffffffffffffffffffffffffffffffff1681565b6101ec610265565b600060108060200260405190810160405280929190826010801561025b576020028201915b8160009054906101000a900473ffffffffffffffffffffffffffffffffffffffff1673ffffffffffffffffffffffffffffffffffffffff1681526020019060010190808311610211575b5050505050905090565b610200604051908101604052806010905b600073ffffffffffffffffffffffffffffffffffffffff1681526020019060019003908161027657905050905600a165627a7a723058204efce897d2897e41b305f60e4b6a61655789742891a1b3b6491418b42546a1b20029",
  "source": "pragma solidity ^0.4.17;\n\ncontract transaction {\n\taddress[16] public buyers;\n\n\t// buy a product\n\tfunction buy(uint pId) public returns (uint) {\n  \t\trequire(pId >= 0);\n\n  \t\tbuyers[pId] = msg.sender;\n\n  \t\treturn pId;\n\t}\n\n\t// Retrieving the adopters\n\tfunction getBuyers() public view returns (address[16]) {\n  \t\treturn buyers;\n\t}\n}",
  "sourcePath": "/Users/Damon/Documents/18Spring/comp9900/project/mango-magic/DApp_shopping_cart/contracts/Transaction.sol",
  "compiler": {
    "name": "solc",
    "version": "0.4.19+commit.c4cbbb05.Emscripten.clang"
  },
  "schemaVersion": "2.0.0",
  "updatedAt": "2018-04-12T15:51:29.591Z"
}